:0400000079EF26F07E
:1000080000C01AF001C019F002C018F003C017F0C0
:1000180004C016F005C015F0E1CF1DF0E2CF1EF0C8
:10002800E9CF1BF0EACF1CF09EAA3DD0C0EC21F02E
:100038000050010A38E12BEC22F0A50E08012C250E
:10004800E16E080E2D21E26E00C0E6FFA50E2C25FC
:10005800E96E080E2D21EA6EEE500A0A16E1A50E89
:100068002C25E16E080E2D21E26EE66AE60E0A01E5
:10007800156F080E166FA50E176F080E186F34EC63
:1000880022F008012C6B2D6B0DD02C4B2D2B800EE4
:100098002D19006E800E005C02E1400E2C5D02E31B
:1000A8002C6B2D6BC3D7A4AA3DD01DEC22F00050B9
:1000B800010A38E122EC22F0640E08012E25E16ED7
:1000C800080E2F21E26E00C0E6FF640E2E25E96EB1
:1000D800080E2F21EA6EEE500D0A16E1640E2E2549
:1000E800E16E080E2F21E26EE66A7F0E0A01156F97
:1000F800090E166F640E176F080E186F34EC22F095
:1001080008012E6B2F6B0DD02E4B2F2B800E2F1925
:10011800006E800E005C02E1400E2E5D02E32E6B45
:100128002F6BC3D71AC000F019C001F018C002F035
:1001380017C003F016C004F015C005F01BC0E9FF96
:0E0148001CC0EAFF1DC0E1FF1EC0E2FF110057
:080156000AAE029E000E120029
:10015E000B840BAEBAEF00F0010E036E026A016A59
:0A016E00006A0A360232FF0E12008A
:100178000B820BAEC6EF00F00368026801680068E6
:080188000A360232FF0E1200DC
:0E019000026A016A006A086A036A000E120021
:10019E000CB011EF01F00CA2B7EF01F00E6A000ED9
:1001AE00026428EF01F0F00E0214D8A4F3EF00F071
:1001BE00023A01380F0B02260138F00B016E00389F
:1001CE000F0B01260038F00B006E08380F0B0026BF
:1001DE000838F00B086E0E84D89002BE0CEF01F0BA
:1001EE0008360036013602360E2A02BE0CEF01F03A
:1001FE0008360036013602360E2A02BE0CEF01F02A
:10020E0008360036013602360E2A0E500364ADEF64
:10021E0001F0035E0BBC08AEB2EF01F0D880800E89
:10022E0008640030000E002201220222D8A0B2EF94
:10023E0001F0023201320032034AB7EF01F0B2EFA1
:10024E0001F001C002F000C001F008C000F0086A21
:10025E00000E0E8602645FEF01F0F00E0214D8A4B9
:10026E0047EF01F0023A01380F0B02260138F00B6E
:10027E00016E00380F0B01260038F00B006E0E8455
:10028E00D89002BE0CEF01F00036013602360E2A6F
:10029E0002BE0CEF01F00036013602360E2A02BE07
:1002AE000CEF01F00036013602360E2A0CEF01F08B
:1002BE0001C002F000C001F0006A000E0E960E881A
:1002CE0002648CEF01F0F00E0214D8A477EF01F067
:1002DE00023A01380F0B02260138F00B016E0E8424
:1002EE00D89002BE0CEF01F0013602360E2A02BE85
:1002FE000CEF01F0013602360E2A02BE0CEF01F0B1
:10030E00013602360E2A0CEF01F001C002F0016A2E
:10031E00000E0E860264BCEF01F0F00E0214D8A49B
:10032E009BEF01F0023A0E84D89002BE0CEF01F062
:10033E0002360E2A02BE0CEF01F002360E2A02BE63
:10034E000CEF01F002360E2A0CEF01F0010E0C6ECE
:10035E00FFDEBFEF01F0020E0C6EF6DEBFEF01F016
:10036E00040E0C6E02DFBFEF01F0080E0C6E09DFFB
:02037E0012006B
:100380000B800BAECCEF01F0026A0AAEFF0E026EDC
:0C039000016E006E0A360232FF0E1200F1
:08039C000B6A0B86FF0E120034
:1003A400086A080E0C6E003408360450085ED8B093
:0E03B40002D00826D89000360C2EF5D7120085
:1003C200025006180E6E086A096A0B6A0350076427
:1003D200D4EF02F006500A6E068E028E03500B6EA8
:1003E2000750036E000E0B6424EF02F00B50075E01
:1003F200D8B4C5EF02F0070E076493EF02F0075E70
:1004020000C008F001C000F002C001F0026A074E0D
:10041200C5EF02F0076468EF02F0075E00C008F063
:1004220001C000F0016A074EC5EF02F0076446EF13
:1004320002F0075E00C008F0006A074EC5EF02F046
:1004420007642DEF02F00AC002F005C001F004C0FB
:1004520000F0086AEEEF03F0030E076438EF02F0D3
:10046200075E08380F0B086E074EC5EF02F0D890F2
:100472000832074EC5EF02F0D8900832074EC5EF9A
:1004820002F0D8900832C5EF02F0030E076457EF6E
:1004920002F0075E08380F0B086E0038F00B0826D2
:1004A20000380F0B006E074EC5EF02F0D8900032F5
:1004B2000832074EC5EF02F0D89000320832074EDC
:1004C200C5EF02F0D89000320832C5EF02F0030EF9
:1004D20007647FEF02F0075E08380F0B086E0038E2
:1004E200F00B082600380F0B006E0138F00B0026C7
:1004F20001380F0B016E074EC5EF02F0D8900132A2
:1005020000320832074EC5EF02F0D89001320032B5
:100512000832074EC5EF02F0D8900132003208329D
:10052200C5EF02F0030E0764B0EF02F0075E083871
:100532000F0B086E0038F00B082600380F0B006E08
:100542000138F00B002601380F0B016E0238F00B58
:10055200012602380F0B026E074EC5EF02F0D8904B
:100562000232013200320832074EC5EF02F0D89053
:100572000232013200320832074EC5EF02F0D89043
:100582000232013200320832096A000E0EAEB9EFB1
:1005920003F0081E001E011E021E082A002201226C
:1005A2000222B9EF03F00750D8A4DAEF02F0EEEF1F
:1005B20003F0096A02C00AF0028E068E0750035C3D
:1005C200076ED8B4ACEF03F0070E07647AEF03F0BE
:1005D200075E0450096E0550046E0650056E066AE9
:1005E200074EACEF03F0070E07644FEF03F0075E10
:1005F2000450096E0550046E056A074EACEF03F015
:10060200070E07642DEF03F0075E0450096E046ABB
:10061200074EACEF03F0070E076414EF03F00AC0B5
:1006220002F0EEEF03F0030E07641FEF03F0075E24
:1006320009380F0B096E074EACEF03F0D890093260
:10064200074EACEF03F0D8900932074EACEF03F03F
:10065200D8900932ACEF03F0030E07643EEF03F0CB
:10066200075E09380F0B096E0438F00B09260438AF
:100672000F0B046E074EACEF03F0D8900432093230
:10068200074EACEF03F0D89004320932074EACEFBC
:1006920003F0D89004320932ACEF03F0030E076482
:1006A20066EF03F0075E09380F0B096E0438F00B92
:1006B200092604380F0B046E0538F00B04260538A2
:1006C2000F0B056E074EACEF03F0D89005320432E3
:1006D2000932074EACEF03F0D890053204320932EA
:1006E200074EACEF03F0D890053204320932ACEF7A
:1006F20003F0030E076497EF03F0075E09380F0B50
:10070200096E0438F00B092604380F0B046E053805
:10071200F00B042605380F0B056E0638F00B052684
:1007220006380F0B066E074EACEF03F0D890063278
:10073200053204320932074EACEF03F0D89006328C
:10074200053204320932074EACEF03F0D89006327C
:10075200053204320932086A000E0EAEB9EF03F018
:10076200091E041E051E061E092A0422052206224F
:100772000950082604500022055001220650022288
:100782000EBED0EF03F0D8A0DFEF03F00232013249
:1007920000320832033EDFEF03F0E9EF03F0D8B096
:1007A200E4EF03F0000E081E001E011E021E082ABE
:1007B2000022012202220A7EE4EF03F0010E0C6EF7
:1007C200EDDCF0EF03F0020E0C6EE8DCF0EF03F06C
:1007D200040E0C6ED0DCF0EF03F0000E0C6E120073
:1007E2000D6A086A0050D8B4000C04180A6E0ABEDA
:1007F2000D1E0B6A04AE02D0041E042A00AE02D003
:10080200001E002A005004100A6E0ABE1FD00450B7
:10081200085E003600340836045008260036060EFC
:100822000C6E00340836045000B0085E00A00826A2
:1008320000360C2EF6D700A008260BB015D00DAE50
:10084200000C001E002A081E082A000C04AE09D063
:1008520000BE04D00050086E006AF1D7006A002A78
:10086200000C001E0B2AD3D7082A0450085CD8A417
:0E087200E6D7086A002A00AEE2D7FF0C12009B
:100880000134083609360450085E0550D8A0053CEE
:10089000095E003601360F0E0C6E0134083609363B
:1008A000045000A006D0085E0550D8A0053C095EA3
:1008B00005D008260550D8B0053C0926003601367B
:1008C0000C2EEBD700B006D0045008260550D8B047
:0808D000053C0926000012009E
:1008D800086A096A000E07620364F1EF04F0025027
:1008E80006180A6E075003267E0ED8A082EF04F081
:1008F800035ED8B0F6EF04F086EF04F0035ED8A0EC
:10090800FBEF04F0028E068E02C00EF001C00BF061
:1009180000C00DF000500402F4CF0CF001500502A5
:10092800F4CF00F0F3CF08F00402F3500C26F45093
:100938000822000E00220D500502F3500C26F45038
:100948000822000E002202500402F3500826F45038
:10095800002202500502016A000E0122F35000260F
:10096800F45001220D500602F3500826F4500022DC
:10097800026A000E012202220B500602F3500026E2
:10098800F4500122000E02220E500602F3500126F6
:10099800F450022202BED9EF04F0083600360136C0
:1009A80002360306D8B4FBEF04F0ECEF04F0D8806D
:1009B800800E08640030000E002201220222D8A016
:1009C800ECEF04F0023201320032034AF6EF04F091
:1009D8000AAE029E000EFEEF04F0010EC8EC00F015
:1009E800FEEF04F0020EBCEC00F0FEEF04F0040E83
:0609F800AFEC00F012005C
:1009FE000A6A0350D8A40A800750D8A40A820A5063
:100A0E00D8B462EF05F0030AD8B41BEF05F00AB0B4
:100A1E0016EF05F006AE60EF05F05EEF05F002AEE4
:100A2E005EEF05F060EF05F00250800B0A6E029E3D
:100A3E000650800B069E0A18D8B42CEF05F00A500B
:100A4E00D8B45EEF05F060EF05F00750035CD8B444
:100A5E0036EF05F0D8A052EF05F058EF05F006502E
:100A6E00025CD8B440EF05F0D8A052EF05F058EF75
:100A7E0005F00550015CD8B44AEF05F0D8A052EF4E
:100A8E0005F058EF05F00450005CD8B462EF05F0A5
:100A9E00D8B058EF05F00A52D8B460EF05F05EEF0B
:100AAE0005F00A52D8B45EEF05F060EF05F0D8807D
:0E0ABE001200D8901200D880D88412001200C6
:100ACC0003500718D8A47AEF05F002500618D8A4E2
:100ADC007AEF05F001500518D8A47AEF05F0005014
:0E0AEC000418D8B4D8841200D8941200120056
:100AFA000050086E0150006E0250016E0350026EE3
:100B0A00036A0B6A0C6A9E0E036E0A6A020E0C6E68
:060B1A00CFEC00F0120018
:100B20000B6A0A6A096A00500402F4CF09F0F3CF95
:100B300008F001500502F4CF0BF0F3CF0AF000509B
:100B40000502F3500926F4500A22E86A0B220150EC
:100B50000402F3500926F4500A22E86A0B2208C066
:100B600000F009C001F00AC002F00BC003F012004F
:100B70000B6A0A6A096A086A0E6A03340836045066
:100B8000085E0550D8A0053C095E0650D8A0063C7A
:100B90000A5E0750D8A0073C0B5EE86AD8A0010E99
:100BA0000E5E0336070E0C6E0334083609360A361D
:100BB0000B360E36045003A012D0085E0550D8A0A4
:100BC000053C095E0650D8A0063C0A5E0750D8A036
:100BD000073C0B5EE86AD8A0010E0E5E11D0082615
:100BE0000550D8B0053C09260650D8B0063C0A2668
:100BF0000750D8B0073C0B26E86AD8B0010E0E2685
:100C000003360C2ED1D70234083609360A360B3695
:100C10000E36045003A012D0085E0550D8A0053C43
:100C2000095E0650D8A0063C0A5E0750D8A0073CD3
:100C30000B5EE86AD8A0010E0E5E11D008260550A2
:100C4000D8B0053C09260650D8B0063C0A26075005
:100C5000D8B0073C0B26E86AD8B0010E0E26023643
:100C6000070E0C6E0234083609360A360B360E367D
:100C7000045002A012D0085E0550D8A0053C095EC1
:100C80000650D8A0063C0A5E0750D8A0073C0B5E71
:100C9000E86AD8A0010E0E5E11D008260550D8B023
:100CA000053C09260650D8B0063C0A260750D8B0A5
:100CB000073C0B26E86AD8B0010E0E2602360C2E31
:100CC000D1D70134083609360A360B360E360450B1
:100CD00002A012D0085E0550D8A0053C095E06505F
:100CE000D8A0063C0A5E0750D8A0073C0B5EE86A15
:100CF000D8A0010E0E5E11D008260550D8B0053CD4
:100D000009260650D8B0063C0A260750D8B0073C42
:100D10000B26E86AD8B0010E0E260136070E0C6EBF
:100D20000134083609360A360B360E36045001A057
:100D300012D0085E0550D8A0053C095E0650D8A028
:100D4000063C0A5E0750D8A0073C0B5EE86AD8A0B4
:100D5000010E0E5E11D008260550D8B0053C0926BC
:100D60000650D8B0063C0A260750D8B0073C0B26E0
:100D7000E86AD8B0010E0E2601360C2ED1D7003409
:100D8000083609360A360B360E36045001A012D04A
:100D9000085E0550D8A0053C095E0650D8A0063C68
:100DA0000A5E0750D8A0073C0B5EE86AD8A0010E87
:100DB0000E5E11D008260550D8B0053C0926065015
:100DC000D8B0063C0A260750D8B0073C0B26E86A84
:100DD000D8B0010E0E260036070E0C6E0034083611
:100DE00009360A360B360E36045000A012D0085EC3
:100DF0000550D8A0053C095E0650D8A0063C0A5E06
:100E00000750D8A0073C0B5EE86AD8A0010E0E5E22
:100E100011D008260550D8B0053C09260650D8B098
:100E2000063C0A260750D8B0073C0B26E86AD8B023
:100E3000010E0E2600360C2ED1D700B00ED0045075
:100E400008260550D8B0053C09260650D8B0063C07
:0C0E50000A260750D8B0073C0B26120001
:080E5C00067EE1EC01F012003A
:100E64000A010051390806E3300E005D03E3010E68
:080E7400006E01D0006A1200BB
:100E7C000B6A0C6A0A6A086A0350D8B4C6EF07F00A
:100E8C00028E9E0E035E03BE51EF07F0D8B451EFF5
:100E9C0007F0B6EF07F0036C080E035CD8A083EFE5
:100EAC0007F0036E083600C008F001C000F002C065
:100EBC0001F0026A080E035CD8A083EF07F0036E02
:100ECC00083600C008F001C000F0016A080E035C8F
:100EDC00D8A083EF07F0036E083600C008F0006A54
:100EEC00080E035CD8A083EF07F0036E0836086A7F
:100EFC000350D8A4D8908FEF07F00350D8B48FEFDD
:100F0C0007F0D8900232013200320832032E87EFFC
:100F1C0007F00BBC08A0A0EF07F0D8A0A0EF07F0DB
:100F2C00082AD8B4002AD8B4012AD8B4022A02BE9E
:100F3C00CAEF07F00AAEC6EF07F0021E011E001E34
:100F4C00081E082AD8B4002AD8B4012AD8B4022A18
:100F5C00C6EF07F0026A016A006A086AC6EF07F07A
:100F6C000B800BAED0EF07F0026A0AAED0EF07F0A1
:100F7C00026E016E006E086E0A360232D0EF07F078
:100F8C00000E0C6AD1EF07F0010E0C6EC0EC01F0F4
:100F9C00D1EF07F0FF0E0250036E0150026E0050AD
:080FAC00016E0850006E1200F6
:100FB4000450000A08E10550000A05E1FF0E006E26
:100FC4007F0E016E57D00D6A096A086A015000103D
:100FD400D8B4000C015005180A6E0ABE0D1E0B6A27
:100FE40005AE05D0041E051E042AD8B4052A01AE98
:100FF40005D0001E011E002AD8B4012A0150051094
:101004000A6E0ABE10D03ADC0BB020D00DAE000C34
:10101400001E011E002AD8B4012A081E091E082A2F
:10102400D8B4092A000C05AE0DD001BE07D001507A
:10103400096E0050086E016A006AE8D7016A006A06
:10104400002A000C011E001E0B2ADDD7082AD8B482
:10105400092A0450085CD8A4D9D70550095CD8A43F
:10106400D5D7096A086A002AD8B4012A01AECED7B6
:061074000000FF0C120059
:10107A000450000A12E10550000A0FE10650000A66
:10108A000CE10750000A09E1FF0E006EFF0E016E27
:10109A007F0E026EFF0E036EA8D0086A096A075017
:1010AA00D8B4E8EF08F00350D8B4EDEF08F00250D6
:1010BA0006180A6E028E068E0E6A02C008F001C079
:1010CA000CF000C00DF004500D5E0550D8A0053C90
:1010DA000C5E0650D8A0063C085E086A0C6A0D6AC7
:1010EA00D8A07FEF08F0D8900232013200320832DD
:1010FA00010E0E6E0750035ED8A08CEF08F07E0E2C
:10110A000E240326D8B0F2EF08F092EF08F07E0E14
:10111A000E240326D8A0F7EF08F0180E0B6E0D3632
:10112A000C3608360036013602360E360450005E9A
:10113A000550D8A0053C015E0650D8A0063C025EC8
:10114A0006340E120EA0ADEF08F00D80B8EF08F0CD
:10115A00045000260550D8B0053C01260650D8B0E8
:10116A00062802260D900B2E94EF08F0DEEF08F009
:10117A00D8900036013602360E360450005E05500D
:10118A00D8A0053C015E0650D8A0063C025E063493
:10119A000E10010B0D26D8B00C2AD8B4082AD8A4F0
:1011AA00DEEF08F008320C320D32032AD8B4F2EF1F
:1011BA0008F00AAE089E0850026E0C50016E0D50DF
:1011CA00006EFAEF08F0010ECEEC01F0FAEF08F02B
:1011DA00020EC8EC00F0FAEF08F0040EBCEC00F0C6
:0C11EA00FAEF08F0080EAFEC00F0120065
:1011F600800E0A010019006E800E000A005CD8B04D
:101206006DD100510008016E01C000FA800E011870
:10121600006E800E6E0A005CD8A0C0D0640E046E0C
:1012260000CA00F0F1EC03F0120E0024056E000E69
:1012360000BEFF0E066E000E062205C000F006C0B8
:1012460001F0000E06BEFF0E026E036E0036009021
:101256000136023603360036009001360236033672
:10126600610E0024F66E580E0120F76E000E022065
:10127600F86E0900F5CF11FA0900F5CF12FA090048
:10128600F5CF13FA0900F5CF14FA640E046E00CAFE
:1012960000F0F1EC03F008C000F00A0E046EF1EC69
:1012A60003F0090E0024056E000E00BEFF0E066E4A
:1012B600000E062205C000F006C001F0000E06BEB4
:1012C600FF0E026E036E00360090013602360336BC
:1012D60000360090013602360336610E0024F66EA3
:1012E600580E0120F76E000E0220F86E0900F5CFA9
:1012F60000F00900F5CF01F00900F5CF02F0090072
:10130600F5CF03F011CA04F012CA05F013CA06F0AD
:1013160014CA07F06CEC04F000C011FA01C012FA0E
:1013260002C013FA03C014FA0A0E046E00CA00F0D3
:10133600F1EC03F008C000F000C001F0000E00BEA2
:10134600FF0E026E036E046E0136019002360336FE
:10135600043601360190023603360436610E012446
:10136600F66E580E0220F76E000E0320F86E090086
:10137600F5CF00F00900F5CF01F00900F5CF02F036
:101386000900F5CF03F011CA04F012CA05F013CA1A
:1013960006F014CA07F06CEC04F007D2800E0A0AB5
:1013A600006E800E0019005C71E20A0E046E00CA1F
:1013B60000F0F1EC03F0090E0024056E000E00BEED
:1013C600FF0E066E000E062205C000F006C001F0F4
:1013D600000E06BEFF0E026E036E0036009001364A
:1013E6000236033600360090013602360336610EA9
:1013F6000024F66E580E0120F76E000E0220F86EDD
:101406000900F5CF11FA0900F5CF12FA0900F5CF58
:1014160013FA0900F5CF14FA0A0E046E00CA00F09A
:10142600F1EC03F008C000F000C001F0000E00BEB1
:10143600FF0E026E036E046E01360190023603360D
:10144600043601360190023603360436610E012455
:10145600F66E580E0220F76E000E0320F86E090095
:10146600F5CF00F00900F5CF01F00900F5CF02F045
:101476000900F5CF03F011CA04F012CA05F013CA29
:1014860006F014CA07F06CEC04F08FD100CA00F025
:10149600000E00BFFF0E016E026E036E0036009056
:1014A6000136023603360036009001360236033620
:1014B600610E0024F66E580E0120F76E000E022013
:1014C600F86E0900F5CF00F00900F5CF01F009002C
:1014D600F5CF02F00900F5CF03F067D1800E0019B1
:1014E600006E800E6E0A005CD8A0C0D0640E046E3A
:1014F60000CA00F0F1EC03F0120E0024056E000E97
:1015060000BEFF0E066E000E062205C000F006C0E5
:1015160001F0000E06BEFF0E026E036E003600904E
:10152600013602360336003600900136023603369F
:101536002D0E0024F66E580E0120F76E000E0220C6
:10154600F86E0900F5CF11FA0900F5CF12FA090075
:10155600F5CF13FA0900F5CF14FA640E046E00CA2B
:1015660000F0F1EC03F008C000F00A0E046EF1EC96
:1015760003F0090E0024056E000E00BEFF0E066E77
:10158600000E062205C000F006C001F0000E06BEE1
:10159600FF0E026E036E00360090013602360336E9
:1015A600003600900136023603362D0E0024F66E04
:1015B600580E0120F76E000E0220F86E0900F5CFD6
:1015C60000F00900F5CF01F00900F5CF02F009009F
:1015D600F5CF03F011CA04F012CA05F013CA06F0DB
:1015E60014CA07F06CEC04F000C011FA01C012FA3C
:1015F60002C013FA03C014FA0A0E046E00CA00F001
:10160600F1EC03F008C000F000C001F0000E00BECF
:10161600FF0E026E036E046E01360190023603362B
:101626000436013601900236033604362D0E0124A7
:10163600F66E580E0220F76E000E0320F86E0900B3
:10164600F5CF00F00900F5CF01F00900F5CF02F063
:101656000900F5CF03F011CA04F012CA05F013CA47
:1016660006F014CA07F06CEC04F09FD0800E0A0A4C
:10167600006E800E0019005C71E20A0E046E00CA4C
:1016860000F0F1EC03F0090E0024056E000E00BE1A
:10169600FF0E066E000E062205C000F006C001F021
:1016A600000E06BEFF0E026E036E00360090013677
:1016B60002360336003600900136023603362D0E0A
:1016C6000024F66E580E0120F76E000E0220F86E0A
:1016D6000900F5CF11FA0900F5CF12FA0900F5CF86
:1016E60013FA0900F5CF14FA0A0E046E00CA00F0C8
:1016F600F1EC03F008C000F000C001F0000E00BEDF
:10170600FF0E026E036E046E01360190023603363A
:101716000436013601900236033604362D0E0124B6
:10172600F66E580E0220F76E000E0320F86E0900C2
:10173600F5CF00F00900F5CF01F00900F5CF02F072
:101746000900F5CF03F011CA04F012CA05F013CA56
:1017560006F014CA07F06CEC04F027D000CA00F0BB
:10176600000E00BFFF0E016E026E036E0036009083
:10177600013602360336003600900136023603364D
:101786002D0E0024F66E580E0120F76E000E022074
:10179600F86E0900F5CF00F00900F5CF01F0090059
:0C17A600F5CF02F00900F5CF03F01200AF
:1017B2000B6A0C6A086A0350D8B45DEF0CF002C0E1
:1017C2000AF0028E9E0E035E03AE4DEF0CF0036C28
:1017D200080E035CD8A01AEF0CF0036E083600C0A6
:1017E20008F001C000F002C001F0026A080E035CBA
:1017F200D8A01AEF0CF0036E083600C008F001C042
:1018020000F0016A080E035CD8A01AEF0CF0036E18
:10181200083600C008F0006A080E035CD8A01AEF70
:101822000CF0036E0836086A0350D8A4D89026EF4D
:101832000CF00350D8B426EF0CF0D89002320132EB
:1018420000320832032E1EEF0CF00BBC08A037EF5B
:101852000CF0D8A037EF0CF0082AD8B4002AD8B47C
:10186200012AD8B4022A02BE61EF0CF00AAE5DEF83
:101872000CF0021E011E001E081E082AD8B4002AFF
:10188200D8B4012AD8B4022A5DEF0CF0026A016AC8
:10189200006A086A5DEF0CF00B800BAE68EF0CF08B
:1018A200026A0AAE68EF0CF0026E016E006E086EFC
:1018B2000A36023268EF0CF00C6A000E69EF0CF087
:1018C200010E0C6E000EC0EC01F069EF0CF0FF0E81
:1018D2000250036E0150026E0050016E0850006EFD
:0218E2001200F2
:1018E4000050086E0150006E0250016E0350026EEB
:1018F400036A0B6A0C6A9E0E036E0A6A02AE8FEFCD
:101904000CF0081E001E011E021E082AD8B4002A6C
:10191400D8B4012AD8B4022A0A8E020E0C6ECFEC77
:0419240000F01200BD
:0C1928000E0E0D6E0D2EFED700001200FA
:101934006E0E0A01005DD8A0CAD0640E046E00CAFF
:1019440000F0D2EC01F0120E0024056E066A000EBF
:10195400062205C000F006C001F0000E06BEFF0E10
:10196400026E036E003600900136023603360036EE
:101974000090013602360336610E0024F66E580ECE
:101984000120F76E000E0220F86E0900F5CF00F07A
:101994000900F5CF01F00900F5CF02F00900F5CFF9
:1019A40003F0000E046E000E056E000E066E7E0E31
:1019B400076E6CEC04F000C011FA01C012FA02C008
:1019C40013FA03C014FA640E046E00CA00F0D2ECD9
:1019D40001F008C000F00A0E046ED2EC01F0090E0A
:1019E4000024056E066A000E062205C000F006C03B
:1019F40001F0000E06BEFF0E026E036E003600906C
:101A040001360236033600360090013602360336BC
:101A1400610E0024F66E580E0120F76E000E0220AF
:101A2400F86E0900F5CF00F00900F5CF01F00900C8
:101A3400F5CF02F00900F5CF03F011CA04F012CA81
:101A440005F013CA06F014CA07F06CEC04F000C0E9
:101A540011FA01C012FA02C013FA03C014FA0A0EF2
:101A6400046E00CA00F0D2EC01F008C000F000C01F
:101A740001F0000E026E036E046E01360190023610
:101A84000336043601360190023603360436610EFD
:101A94000124F66E580E0220F76E000E0320F86E35
:101AA4000900F5CF00F00900F5CF01F00900F5CFEA
:101AB40002F00900F5CF03F011CA04F012CA05F0D0
:101AC40013CA06F014CA07F06CEC04F0B1D000514C
:101AD4000A08D8B07ED00A0E046E00CA00F0D2EC18
:101AE40001F0090E0024056E066A000E062205C0E8
:101AF40000F006C001F0000E06BEFF0E026E036E7B
:101B04000036009001360236033600360090013666
:101B140002360336610E0024F66E580E0120F76E6D
:101B2400000E0220F86E0900F5CF00F00900F5CF91
:101B340001F00900F5CF02F00900F5CF03F0000E23
:101B4400046E000E056E000E066E7E0E076E6CECC3
:101B540004F000C011FA01C012FA02C013FA03C063
:101B640014FA0A0E046E00CA00F0D2EC01F008C0A8
:101B740000F000C001F0000E026E036E046E013628
:101B840001900236033604360136019002360336DC
:101B94000436610E0124F66E580E0220F76E000E14
:101BA4000320F86E0900F5CF00F00900F5CF01F02D
:101BB4000900F5CF02F00900F5CF03F011CA04F0D3
:101BC40012CA05F013CA06F014CA07F06CEC04F04C
:101BD4002FD000CA00F0000E016E026E036E0036B4
:101BE4000090013602360336003600900136023684
:101BF4000336610E0024F66E580E0120F76E000EB7
:101C04000220F86E0900F5CF00F00900F5CF01F0CD
:101C14000900F5CF02F00900F5CF03F0000E046EC1
:101C2400000E056E000E066E7E0E076E6CEC04F060
:021C340012009C
:101C36000A01096B0A6B0901FC6BFD6B0901EAC914
:101C460000F0EBC901F0ECC902F0010EEA27000E24
:101C5600EB23EC2300C0F6FF01C0F7FF02C0F8FF3C
:101C66000900F5CF00F000C0F9F90052D8B4D5EF5D
:101C76001EF0F951250A0CE0E8C9E1FFE9C9E2FFC7
:101C8600F9C9E6FFE84BE92B0A01094B0A2BD6D71F
:101C96000901FA6BFB6BFC6BFD6B24D00901FC8719
:101CA600010EEA27000EEB23EC2359D0FC81010E2E
:101CB600EA27000EEB23EC2352D0FC83010EEA2721
:101CC600000EEB23EC234BD0FD87010EEA27000E16
:101CD600EB23EC2344D0FC85010EEA27000EEB2310
:101CE600EC233DD0EAC9F6FFEBC9F7FFECC9F8FFD4
:101CF6000900F5CF01F001502D0AD0E0EAC9F6FF40
:101D0600EBC9F7FFECC9F8FF0900F5CF01F0015068
:101D1600200ACCE0EAC9F6FFEBC9F7FFECC9F8FFE9
:101D26000900F5CF01F001502B0AC7E0EAC9F6FF1A
:101D3600EBC9F7FFECC9F8FF0900F5CF01F0015038
:101D4600230AC2E0EAC9F6FFEBC9F7FFECC9F8FFC0
:101D56000900F5CF01F00150300ABDE001D09DD752
:101D6600FCA301D0FC91FCA701D0FC95EAC9F6FFC3
:101D7600EBC9F7FFECC9F8FF0900F5CF00F0000E3C
:101D8600016E00C000FA32EC07F0005238E009019B
:101D9600FA6BFB6B0901FAC900F0FBC901F00A0EE8
:101DA600046E000E056E90EC05F0EAC9F6FFEBC96D
:101DB600F7FFECC9F8FF0900F5CF02F00250002446
:101DC600FA6F000E0120FB6F300EFA5F000EFB5B10
:101DD600010EEA27000EEB23EC23EAC9F6FFEBC956
:101DE600F7FFECC9F8FF0900F5CF00F0000E016E11
:101DF60000C000FA32EC07F00052CCE134D0EAC958
:101E0600F6FFEBC9F7FFECC9F8FF0900F5CF01F0C3
:101E160001502A0A28E1EDC9E9FFEEC9EAFFEECF33
:101E260000F0EECF01F000C0E9FF01C0EAFFEECFFF
:101E3600FAF9EECFFBF9EDC9E9FFEEC9EAFF020EAA
:101E4600EE24006E000EEE20016EEDC9E1FFEEC934
:101E5600E2FF00C0E6FF01C0E6FF010E0901EA2726
:101E6600000EEB23EC23EAC9F6FFEBC9F7FFECC93A
:101E7600F8FF0900F5CF01F001502E0A72E10901C1
:101E8600010EEA27000EEB23EC23EAC9F6FFEBC9A5
:101E9600F7FFECC9F8FF0900F5CF01F001502A0A57
:101EA60028E1EDC9E9FFEEC9EAFFEECF00F0EECF7B
:101EB60001F000C0E9FF01C0EAFFEECFF7F9EECF6F
:101EC600F8F9EDC9E9FFEEC9EAFF020EEE24006E4D
:101ED600000EEE20016EEDC9E1FFEEC9E2FF00C083
:101EE600E6FF01C0E6FF010EEA27000EEB23EC2316
:101EF60037D0F76BF86BEAC9F6FFEBC9F7FFECC909
:101F0600F8FF0900F5CF00F0000E016E00C000FAE0
:101F160032EC07F0005224E0F7C900F0F8C901F0EE
:101F26000A0E046E000E056E90EC05F0EAC9F6FF87
:101F3600EBC9F7FFECC9F8FF0900F5CF02F0025034
:101F460000240901F76F000E0120F86F300EF75FCD
:101F5600000EF85B010EEA27000EEB23EC23CBD72D
:101F660004D00901F76BF86BFD890901EAC900F095
:101F7600EBC901F0ECC902F0010EEA27000EEB23D3
:101F8600EC2300C0F6FF01C0F7FF02C0F8FF09000E
:101F9600F5CFF9F910D109CA00F00ACA01F0D9EF54
:101FA6001EF0FC89E2D7FD8545D1FC8BFD8142D12F
:101FB600FD8340D1FC8D3ED13DD1FC8BFC8F3AD1C7
:101FC600EDC9E9FFEEC9EAFFEECF00F0EECF01F072
:101FD60000C0E9FF01C0EAFFEECF05FAEECF06FA30
:101FE600EDC9E9FFEEC9EAFF020EEE24006E000E0F
:101FF600EE20016EEDC9E1FFEEC9E2FF00C0E6FF8B
:1020060001C0E6FF000E0A01061902E1000E0519DD
:1020160004E1300E056F080E066F076B086B07515B
:102026000525E96E08510621EA6EEE520BE0010E17
:102036000725006E000E0821016E00C007FA01C0D8
:1020460008FAEDD70901F751F8110EE00A01085117
:102056000901F85D04E10A0107510901F75D04E28F
:10206600F7C907FAF8C908FAFB510A01085D04E145
:102076000901FA510A01075D08E207510901FA5FF1
:102086000A0108510901FB5B03D00901FA6BFB6BDE
:10209600FCB718D00901FAC900F0FBC901F0010E1E
:1020A600FA5F000EFB5B005001100CE0E8C9E1FF8F
:1020B600E9C9E2FF200EE66EE84BE92B0A01094B5F
:1020C6000A2BE8D70A0107CA02F008CA03F0010E74
:1020D600075D006E000E0859016E00C007FA01C0C8
:1020E60008FA025003101BE005CAE9FF06CAEAFF18
:1020F600E8C9E1FFE9C9E2FFEECFE6FF0901E84BD7
:10210600E92B010E0A010525006E000E0621016E5F
:1021160000C005FA01C006FA094B0A2BD3D70901FC
:10212600FCA718D00901FAC900F0FBC901F0010E9D
:10213600FA5F000EFB5B005001100CE0E8C9E1FFFE
:10214600E9C9E2FF200EE66EE84BE92B0A01094BCE
:102156000A2BE8D773D5EDC9E9FFEEC9EAFFEECF42
:1021660000F0EECF01F000C0E9FF01C0EAFFEECFBC
:10217600F9F9EDC9E9FFEEC9EAFF020EEE24006E99
:10218600000EEE20016EEDC9E1FFEEC9E2FF00C0D0
:10219600E6FF01C0E6FF0A01F90E056F090E066F9C
:1021A600010E076F000E086F4DD7C00E0901FC1314
:1021B600000EFD133FD0F951000AD8B4ECD6F95100
:1021C6006C0AD8B4EED6F9514C0AD8B4EAD6F9510D
:1021D600660AD8B4E8D6F951450AD8B4E6D6F95114
:1021E600650AD8B4E3D6F951670AD8B4E1D6F951ED
:1021F6006F0AD8B4DFD6F951640AD8B4DDD6F951DE
:10220600690AD8B4D9D6F951700AD8B4D6D6F951D4
:10221600580AD8B4D2D6F951780AD8B4CFD6F951DB
:10222600730AD8B4CDD6F951630A95E0F951750A07
:10223600BCE0B1D7000EFC15006EFD51070B016E18
:1022460000500110D8B447EF1AF0FDA904D0060ECD
:10225600F76F000EF86FEDC9E9FFEEC9EAFFEECFA2
:1022660000F0EECF01F000C0E9FF01C0EAFFEECFBB
:1022760001FAEECF02FAEECF03FAEECF04FAEDC979
:10228600E9FFEEC9EAFF040EEE24006E000EEE2012
:10229600016EEDC9E1FFEEC9E2FF00C0E6FF01C035
:1022A600E6FF046A056A066A076A01CA00F002CAFE
:1022B60001F003CA02F004CA03F0FFEC04F0010EB9
:1022C600D8B0000E006E005207E00A01037F030E2D
:1022D6000901FC13000EFD13FE6BFF6B01CA00F033
:1022E60002CA01F003CA02F004CA03F0046A056ACE
:1022F600066A076A66EC05F0000ED8A4010E006EA9
:102306000052D8B48DD004CA00F0016A026A036A8A
:10231600FF0E0016000E01167E0E005E000E015A1C
:1023260000C0FEF901C0FFF9010E005E000E015A61
:1023360000C0FEF901C0FFF9030E046E000E056E23
:1023460090EC05F000C0FEF901C0FFF90A0E046E1C
:10235600000E056EDAEC07F000C0FEF901C0FFF9C9
:10236600800E0118026E800E025C02E1000E005C17
:1023760005E2010E0901FE5F000EFF5B0901FE5139
:1023860000080A01006FFBEC08F001CA04F002CA5B
:1023960005F003CA06F004CA07F06CEC04F000C0AE
:1023A60005FA01C006FA02C007FA03C008FA000ED1
:1023B600046E000E056E000E066E7F0E076E05CAD1
:1023C60000F006CA01F007CA02F008CA03F0FFECE3
:1023D60004F0010ED8B0000E006E005206E0010EA9
:1023E6000901FE5F000EFF5B1BD0000E046E000E9F
:1023F600056E200E066E820E076E05CA00F006CA2E
:1024060001F007CA02F008CA03F0FFEC04F0000E60
:10241600D8B0010E006E005203E00901FE4BFF2BFF
:102426000901800E006E800EFF19005C02E1FE516C
:10243600000803E3010EF96F02D0FEC9F9F9FDB1F8
:1024460019D0FDA315D0800EFF19006E7F0E005C1B
:1024560002E1FC0EFE5D0BE3800EFF19006E800E9E
:10246600F819005C02E1F751FE5D01E201D002D0ED
:1024760052EF16F0F751F81106E0FDA304D0010E55
:10248600F75F000EF85BF851000802E1F751080803
:1024960003E2080EF96F02D0F7C9F9F901CA00F094
:1024A60002CA01F003CA02F004CA03F0046A056A0C
:1024B600066A076A66EC05F0000ED8A4010E006EE7
:1024C6000052D8B44CD1FEC900FAFBEC08F000C0AB
:1024D60004F001C005F002C006F003C007F001CA0F
:1024E60000F002CA01F003CA02F004CA03F03DEC90
:1024F60008F000C001FA01C002FA02C003FA03C0E4
:1025060004FA0901F95100080A01006FFBEC08F012
:1025160000C004F001C005F002C006F003C007F0D9
:1025260001CA00F002CA01F003CA02F004CA03F0AD
:102536003DEC08F000C00BFA01C00CFA02C00DFA1F
:1025460003C00EFA0BCA01FA0CCA02FA0DCA03FA44
:102556000ECA04FA0BCA00F00CCA01F00DCA02F04A
:102566000ECA03F03EEC07F07DEC05F000C004F067
:1025760001C005F002C006F003C007F00BCA00F068
:102586000CCA01F00DCA02F00ECA03F02EEC07F0D9
:10259600000E046E000E056E000E066E7E0E076EB1
:1025A600FFEC04F0000ED8B0010E006E00521AE0E7
:1025B60001CA00F002CA01F003CA02F004CA03F01D
:1025C600000E046E000E056E000E066E7E0E076E81
:1025D600E1EC01F000C001FA01C002FA02C003FA00
:1025E60003C004FA01CA00F002CA01F003CA02F0ED
:1025F60004CA03F03EEC07F00901F951010F096E18
:102606000A6A000E0A2209C004F00AC005F0000E8C
:102616000ABEFF0E066E076E0436049005360636B1
:10262600073604360490053606360736C50E0424EA
:10263600F66E580E0520F76E000E0620F86E09009D
:10264600F5CF05F00900F5CF06F00900F5CF07F044
:102656000900F5CF08F00850035C08E10750025C5A
:1026660005E10650015C02E10550005C1EE309012C
:1026760001CA00F002CA01F003CA02F004CA03F05C
:10268600CD0E046ECC0E056E4C0E066E7B0E076EDE
:102696006CEC04F000C001FA01C002FA02C003FAB1
:1026A60003C004FAFE4BFF2B5AD001CA00F002CA3F
:1026B60001F003CA02F004CA03F03EEC07F0F9C9C0
:1026C60004F0000E056E066E076E0436049005369D
:1026D6000636073604360490053606360736C50E26
:1026E6000424F66E580E0520F76E000E0620F86ECE
:1026F6000900F5CF05F00900F5CF06F00900F5CF82
:1027060007F00900F5CF08F00850035C08E1075010
:10271600025C05E10650015C02E10550005C1FE227
:10272600090101CA00F002CA01F003CA02F004CA94
:1027360003F0000E046E000E056E200E066E820E6D
:10274600076E6CEC04F000C001FA01C002FA02C088
:1027560003FA03C004FA010EFE5F000EFF5B0901D7
:10276600FDA397D0FDB795D0800E000A006E800EAF
:10277600F819005C02E1F7510A0804E20A0EF76F45
:10278600000EF86F01CA00F002CA01F003CA02F097
:1027960004CA03F03EEC07F000C005FA01C006FAD1
:1027A60002C007FA03C008FA0A010551061107110B
:1027B600081143E00A0E046E000E056E066E076EE3
:1027C60005CA00F006CA01F007CA02F008CA03F0FB
:1027D600B8EC05F008C000F009C001F00AC002F02C
:1027E6000BC003F0000E046E031808E10450021833
:1027F60005E10450011802E10050000A1EE1010E35
:102806000901F75F000EF85B0A0E046E000E056EF6
:10281600066E076E05CA00F006CA01F007CA02F086
:1028260008CA03F0B8EC05F000C005FA01C006FAC4
:1028360002C007FA03C008FAB7D70901800EF819D3
:10284600006E800E005C02E1F951F75D22E2F7515D
:10285600F95D0A01006FFBEC08F000C004F001C04E
:1028660005F002C006F003C007F001CA00F002CA74
:1028760001F003CA02F004CA03F03DEC08F000C000
:1028860001FA01C002FA02C003FA03C004FAF7C94A
:10289600F9F9050E0901F725006E000EF821016E03
:1028A6000050FA5F0150FB5BF751F81103E1FDB7E9
:1028B60001D004D0010EFA5F000EFB5B030EFC157F
:1028C600006EFDC901F0000E01160050011004E073
:1028D600010EFA5F000EFB5BFCA53FD0FCA313D0F4
:1028E600FCA103D02D0EEF6F02D02B0EEF6FE8C9BF
:1028F600E1FFE9C9E2FFEFC9E6FFE84BE92B0A0170
:10290600094B0A2B0ED00901FCA10BD0E8C9E1FF47
:10291600E9C9E2FF200EE66EE84BE92B0A01094BF6
:102926000A2B800E006E800E0901FB19005C02E185
:10293600FA51000811E2E8C9E1FFE9C9E2FF300EE9
:10294600E66EE84BE92B0A01094B0A2B010E090139
:10295600FA5F000EFB5BE5D73FD0FCB71AD0800EBE
:10296600006E800EFB19005C02E1FA51000811E2CC
:10297600E8C9E1FFE9C9E2FF200EE66EE84BE92B64
:102986000A01094B0A2B010E0901FA5F000EFB5BD7
:10299600E6D7FCA313D0FCA103D02D0EF06F02D016
:1029A6002B0EF06FE8C9E1FFE9C9E2FFF0C9E6FFC7
:1029B600E84BE92B0A01094B0A2B0ED00901FCA1B1
:1029C6000BD0E8C9E1FFE9C9E2FF200EE66EE84B4D
:1029D600E92B0A01094B0A2B01CA00F002CA01F0D1
:1029E60003CA02F004CA03F03EEC07F000C005FA81
:1029F60001C006FA02C007FA03C008FAF9C900F0D6
:102A0600000E016E026E036E00360090013602362D
:102A1600033600360090013602360336C50E002412
:102A2600F66E580E0120F76E000E0220F86E0900B1
:102A3600F5CF04F00900F5CF05F00900F5CF06F053
:102A46000900F5CF07F005CA00F006CA01F007CA6B
:102A560002F008CA03F0B8EC05F0300E0026E8C90B
:102A6600E1FFE9C9E2FF00C0E6FF0901E84BE92BF7
:102A76000A01094B0A2B0901F751F81103E1FDB7C9
:102A860001D076D0E8C9E1FFE9C9E2FF2E0EE66E75
:102A9600E84BE92B0A01094B0A2B0901F951F75FAB
:102AA600000EF85B0901F9534EE0F907F9C900F089
:102AB600000E016E026E036E00360090013602367D
:102AC600033600360090013602360336C50E002462
:102AD600F66E580E0120F76E000E0220F86E090001
:102AE600F5CF04F00900F5CF05F00900F5CF06F0A3
:102AF6000900F5CF07F005CA00F006CA01F007CABB
:102B060002F008CA03F0B8EC05F00A0E046E000ED7
:102B1600056E066E076EB8EC05F008C000F009C039
:102B260001F00AC002F00BC003F0300E0026E8C91F
:102B3600E1FFE9C9E2FF00C0E6FFE84BE92B0A0125
:102B4600094B0A2BAFD70901F751F81111E0E8C973
:102B5600E1FFE9C9E2FF300EE66EE84BE92B0A0118
:102B6600094B0A2B010E0901F75F000EF85BEBD744
:102B7600FCAB0CD0E8C9E1FFE9C9E2FF450EE66E01
:102B8600E84BE92B0A01094B0A2B0CD0E8C9E1FFF7
:102B9600E9C9E2FF650EE66E0901E84BE92B0A0179
:102BA600094B0A2B800E0901FF19006E800E005C8E
:102BB60002E1000EFE5D12E2FE510008FE6FFF51BB
:102BC600000EFF57E8C9E1FFE9C9E2FF2D0EE66EE8
:102BD600E84BE92B0A01094B0A2B0CD0E8C9E1FFA7
:102BE600E9C9E2FF2B0EE66E0901E84BE92B0A0163
:102BF600094B0A2B0A0E046E000E056EFEC900F084
:102C0600FFC901F0DAEC07F0300E0026E8C9E1FF53
:102C1600E9C9E2FF00C0E6FF0901E84BE92B0A011A
:102C2600094B0A2B0A0E046E000E056EFEC900F053
:102C3600FFC901F0DAEC07F008C000F009C001F0A6
:102C4600300E0026E8C9E1FFE9C9E2FF00C0E6FF51
:102C56000901E84BE92B0A01094B0A2B0901FCA7DC
:102C66001CD0800E006E800EFB19005C02E1FA514A
:102C7600000813E2E8C9E1FFE9C9E2FF200EE66EAB
:102C8600E84BE92B0A01094B0A2B010E0901FA5FF1
:102C9600000EFB5BFA51FB11EDE121EF0EF0FDA3F7
:102CA600FBD0800EFF19006E800E005C02E1000E64
:102CB600FE5D0AE2010EFE5D006E000EFF59016E1A
:102CC6000050F75F0150F85B01CA00F002CA01F03C
:102CD60003CA02F004CA03F03EEC07F000C005FA8E
:102CE60001C006FA02C007FA03C008FA010EF96F1E
:102CF600F9510A0A36E0F9C900F0000E016E026EBB
:102D0600036E003600900136023603360036009018
:102D1600013602360336C50E0024F66E580E012023
:102D2600F76E000E0220F86E0900F5CF01F00900DB
:102D3600F5CF02F00900F5CF03F00900F5CF04F056
:102D460004500A01085D08E10350075D05E10250E1
:102D5600065D02E10150055D01E203D00901F92B90
:102D6600C7D70901F951F75D0A010F6F000E090176
:102D7600F8590A01106F0FCAF7F910CAF8F905CA0F
:102D860000F006CA01F007CA02F008CA03F07DEC9B
:102D960005F000C004F001C005F002C006F003C053
:102DA60007F001CA00F002CA01F003CA02F004CA21
:102DB60003F02EEC07F000C00BFA01C00CFA02C0BB
:102DC6000DFA03C00EFA0FCA00FAFBEC08F00BCAA4
:102DD60004F00CCA05F00DCA06F00ECA07F06CEC3A
:102DE60004F0000E046E000E056E000E066E7E0EDA
:102DF600076EE1EC01F03EEC07F000C005FA01C0F9
:102E060006FA02C007FA03C008FA0901F751F811D9
:102E160043E00A0E046E000E056E066E076E05CAC6
:102E260000F006CA01F007CA02F008CA03F0B8ECBF
:102E360005F008C000F009C001F00AC002F00BC09E
:102E460003F0000E046E031808E10450021805E1B1
:102E56000450011802E10050000A1EE109010A0EA1
:102E6600046E000E056E066E076E05CA00F006CAF1
:102E760001F007CA02F008CA03F0B8EC05F000C07A
:102E860005FA01C006FA02C007FA03C008FA010EE5
:102E9600F75F000EF85BB9D70901800E006E800E51
:102EA600F819005C02E1F7510C0816E3F7C900FABD
:102EB6009AEC0CF001CA04F002CA05F003CA06F047
:102EC60004CA07F0E1EC01F000C001FA01C002FA01
:102ED60002C003FA03C004FA01CA00F002CA01F0F4
:102EE60003CA02F004CA03F0046A056A066A076A9E
:102EF60066EC05F0000ED8A4010E006E0052D8B4A0
:102F060078D001CA00F002CA01F003CA02F004CA6E
:102F160003F03EEC07F0000E046E031808E10450BF
:102F2600021805E10450011802E10050000A61E1AF
:102F3600800E006E800E0901FF19005C02E1FE5151
:102F4600010857E2FEC900FAFBEC08F000C004F0E5
:102F560001C005F002C006F003C007F001CA00F088
:102F660002CA01F003CA02F004CA03F03DEC08F0FD
:102F76005F0E046E700E056E090E066E810E076EEC
:102F8600FFEC04F0010ED8B0000E006E005206E011
:102F9600090E0901FE5F000EFF5B05D00901080E50
:102FA600FE5F000EFF5BFEC900FAFBEC08F000C0F6
:102FB60004F001C005F002C006F003C007F001CA24
:102FC60000F002CA01F003CA02F004CA03F03DECA5
:102FD60008F03EEC07F000C005FA01C006FA02C090
:102FE60007FA03C008FA0A01016B026B036B046B54
:102FF60039D001CA00F002CA01F003CA02F004CABD
:1030060003F03EEC07F000C005FA01C006FA02C064
:1030160007FA03C008FA05CA00F006CA01F007CA93
:1030260002F008CA03F07DEC05F000C004F001C010
:1030360005F002C006F003C007F001CA00F002CA9C
:1030460001F003CA02F004CA03F02EEC07F000C038
:1030560001FA01C002FA02C003FA03C004FA090128
:10306600FE6BFF6B0901010EF96FF9510A0A36E092
:10307600F9C900F0000E016E026E036E0036009074
:103086000136023603360036009001360236033624
:10309600C50E0024F66E580E0120F76E000E0220B3
:1030A600F86E0900F5CF01F00900F5CF02F009002E
:1030B600F5CF03F00900F5CF04F004500A01085DCE
:1030C60008E10350075D05E10250065D02E101508B
:1030D600055D01E203D00901F92BC7D70901F951B2
:1030E600F725006E000EF821016EFE510026FF51F5
:1030F60001220050FA5F0150FB5BFDB704D0F75187
:10310600F81101E104D0010EFA5F000EFB5B030E1D
:10311600FC15006EFDC901F0000E011600500110ED
:1031260004E0010EFA5F000EFB5BFCA53FD0FCA39A
:1031360013D0FCA103D02D0EF16F02D02B0EF16F30
:10314600E8C9E1FFE9C9E2FFF1C9E6FFE84BE92B6F
:103156000A01094B0A2B0ED00901FCA10BD0E8C9C4
:10316600E1FFE9C9E2FF200EE66EE84BE92B0A0112
:10317600094B0A2B800E006E800E0901FB19005CBC
:1031860002E1FA51000811E2E8C9E1FFE9C9E2FFEC
:10319600300EE66EE84BE92B0A01094B0A2B010EAD
:1031A6000901FA5F000EFB5BE5D73FD0FCB71AD0EA
:1031B600800E006E800EFB19005C02E1FA510008D9
:1031C60011E2E8C9E1FFE9C9E2FF200EE66EE84B2D
:1031D600E92B0A01094B0A2B010E0901FA5F000EC1
:1031E600FB5BE6D7FCA313D0FCA103D02D0EF26F38
:1031F60002D02B0EF26FE8C9E1FFE9C9E2FFF2C97E
:10320600E6FFE84BE92B0A01094B0A2B0ED0090110
:10321600FCA10BD0E8C9E1FFE9C9E2FF200EE66E8A
:10322600E84BE92B0A01094B0A2BF9C900F0090101
:10323600F90700524DE0F9C900F0000E016E026E6A
:10324600036E0036009001360236033600360090D3
:10325600013602360336C50E0024F66E580E0120DE
:10326600F76E000E0220F86E0900F5CF04F0090093
:10327600F5CF05F00900F5CF06F00900F5CF07F008
:1032860005CA00F006CA01F007CA02F008CA03F030
:10329600B8EC05F00A0E046E000E056E066E076E9B
:1032A600B8EC05F008C000F009C001F00AC002F051
:1032B6000BC003F0300E0026E8C9E1FFE9C9E2FFC2
:1032C60000C0E6FFE84BE92B0A01094B0A2BADD7F4
:1032D600800E006E800E0901FF19005C02E1FE51AE
:1032E600000811E2E8C9E1FFE9C9E2FF300EE66E27
:1032F600E84BE92B0A01094B0A2B010E0901FE5F77
:10330600000EFF5BE5D7800E000A006E800EF819EE
:10331600005C02E1F751080803E2080EF96F02D0DB
:10332600F7C9F9F9F951F75F000EF85BF95303E1B4
:10333600FDB701D00BD0E8C9E1FFE9C9E2FF2E0EC7
:10334600E66EE84BE92B0A01094B0A2BF9C900FA8C
:10335600FBEC08F001CA04F002CA05F003CA06F045
:1033660004CA07F06CEC04F0D9EC0BF000C005FAC7
:1033760001C006FA02C007FA03C008FA0901F953A8
:103386004EE0F907F9C900F0000E016E026E036EF9
:1033960000360090013602360336003600900136BC
:1033A60002360336C50E0024F66E580E0120F76E5F
:1033B600000E0220F86E0900F5CF04F00900F5CFE3
:1033C60005F00900F5CF06F00900F5CF07F005CAAC
:1033D60000F006CA01F007CA02F008CA03F0B8EC0A
:1033E60005F00A0E046E000E056E066E076EB8EC4A
:1033F60005F008C000F009C001F00AC002F00BC0D9
:1034060003F0300E0026E8C9E1FFE9C9E2FF00C07B
:10341600E6FFE84BE92B0A01094B0A2BAFD7090156
:10342600F751F81111E0E8C9E1FFE9C9E2FF300EF2
:10343600E66EE84BE92B0A01094B0A2B010E09013E
:10344600F75F000EF85BEBD7FCA71CD0800E006E72
:10345600800EFB19005C02E1FA51000813E2E8C98C
:10346600E1FFE9C9E2FF200EE66EE84BE92B0A010F
:10347600094B0A2B010E0901FA5F000EFB5BFA519C
:10348600FB11EDE121EF0EF0C00EFC15016EFDC93A
:1034960002F0000E0216000E021802E1000E0118DC
:1034A600D8A483D0FCA927D0EDC9E9FFEEC9EAFF6D
:1034B600EECF00F0EECF01F000C0E9FF01C0EAFF59
:1034C600EECF05FAEECF06FAEECF07FAEECF08FA00
:1034D600EDC9E9FFEEC9EAFF040EEE24006E000E08
:1034E600EE20016EEDC9E1FFEEC9E2FF00C0E6FF86
:1034F60001C0E6FF2FD0EDC9E9FFEEC9EAFFEECF26
:1035060000F0EECF01F000C0E9FF01C0EAFFEECF08
:1035160000F0EECF01F0000E01BEFF0E026E036E4C
:1035260000C005FA01C006FA02C007FA03C008FA8D
:10353600EDC9E9FFEEC9EAFF020EEE24006E000EA9
:10354600EE20016EEDC9E1FFEEC9E2FF00C0E6FF25
:1035560001C0E6FF800E0A010819006E800E005CAD
:1035660008E1000E075D05E1000E065D02E1000EB2
:10357600055D1AE2030E0901FC13000EFD13006A35
:10358600016A026A036A0A010551005E0651015A80
:103596000751025A0851035A00C005FA01C006FA3B
:1035A60002C007FA03C008FA50D00901FCA927D0C7
:1035B600EDC9E9FFEEC9EAFFEECF00F0EECF01F06C
:1035C60000C0E9FF01C0EAFFEECF05FAEECF06FA2A
:1035D600EECF07FAEECF08FAEDC9E9FFEEC9EAFF2A
:1035E600040EEE24006E000EEE20016EEDC9E1FF22
:1035F600EEC9E2FF00C0E6FF01C0E6FF26D0EDC936
:10360600E9FFEEC9EAFFEECF00F0EECF01F000C011
:10361600E9FF01C0EAFFEECF05FAEECF06FA000E8B
:103626000A01076F086FEDC9E9FFEEC9EAFF020E4E
:10363600EE24006E000EEE20016EEDC9E1FFEEC92C
:10364600E2FF00C0E6FF01C0E6FF000E0901F8191F
:1036560002E1000EF71911E1000E006E0A010819C9
:1036660008E10050071905E10050061902E105516D
:10367600000A03E10901F74BF82B0901C00EFC15FE
:10368600006E00C005F0B7D00901010EF96FF951BF
:103696000A0A36E0F9C900F0000E016E026E036EEA
:1036A60000360090013602360336003600900136A9
:1036B60002360336C50E0024F66E580E0120F76E4C
:1036C600000E0220F86E0900F5CF01F00900F5CFD3
:1036D60002F00900F5CF03F00900F5CF04F004501D
:1036E6000A01085D08E10350075D05E10250065D29
:1036F60002E10150055D01E203D00901F92BC7D7AC
:1037060089D00901010EF96FF951080A36E0F9C9A5
:1037160000F0000E016E026E036E00360090013658
:103726000236033600360090013602360336ED0EB9
:103736000024F66E580E0120F76E000E0220F86E79
:103746000900F5CF01F00900F5CF02F00900F5CF29
:1037560003F00900F5CF04F004500A01085D08E102
:103766000350075D05E10250065D02E10150055D6B
:1037760001E203D00901F92BC7D74CD00901010E8C
:10378600F96FF9510C0A36E0F9C900F0000E016E26
:10379600026E036E0036009001360236033600369E
:1037A6000090013602360336950E0024F66E580E4A
:1037B6000120F76E000E0220F86E0900F5CF01F029
:1037C6000900F5CF02F00900F5CF03F00900F5CFA7
:1037D60004F004500A01085D08E10350075D05E1A5
:1037E6000250065D02E10150055D01E203D00901C8
:1037F600F92BC7D70FD00550000AD8B445D70550C6
:10380600C00AD8B441D70550800AD8B47AD7055033
:10381600400AB4E00901800E006E800EF819005CC3
:1038260002E1F751F95D03E2F7C9F9F90DD0800E0F
:10383600F819006E800E005C02E1F951F75D04E2B2
:10384600F9C9F7F9000EF86FFA51FB110EE0030EF5
:10385600FC15006EFDC901F0000E011600500110A6
:1038660004E0010EFA5F000EFB5B800EF819006E95
:10387600800EFB19005C02E1FA51F75D05E2F75193
:10388600FA5FF851FB5B02D0FA6BFB6BC40EFC15BA
:10389600016EFD51080B026E0250080A02E1400E4D
:1038A600011808E1FA51FB1104E0010EFA5F000E5F
:1038B600FB5B1CD0C00EFC15016EFD51080B026EA1
:1038C6000250080A02E1800E011810E1800E006E17
:1038D600800EFB19005C02E1FA51020805E2020EB5
:1038E600FA5F000EFB5B02D0FA6BFB6BFCA567D0A0
:1038F600FCA313D0FCA103D02D0EF36F02D02B0E28
:10390600F36FE8C9E1FFE9C9E2FFF3C9E6FFE84B57
:10391600E92B0A01094B0A2B3AD00901FCA10CD06C
:10392600E8C9E1FFE9C9E2FF200EE66EE84BE92BA4
:103936000A01094B0A2B2BD0C00E0901FC15016E9A
:10394600FD51080B026E0250080A02E1800E0118B2
:103956001EE1E8C9E1FFE9C9E2FF300EE66EE84B79
:10396600E92B0A01094B0A2B0901FCAB03D0580EBF
:10397600F46F02D0780EF46FE8C9E1FFE9C9E2FFFF
:10398600F4C9E6FFE84BE92B0A01094B0A2B0901AA
:10399600FA51FB1113E0E8C9E1FFE9C9E2FF300E75
:1039A600E66EE84BE92B0A01094B0A2B010E0901C9
:1039B600FA5F000EFB5BFA51FB11EDE17FD0FA5185
:1039C600FB1115E0FCB713D0E8C9E1FFE9C9E2FF36
:1039D600200EE66EE84BE92B0A01094B0A2B010E75
:1039E6000901FA5F000EFB5BFA51FB11EDE1FCA346
:1039F60013D0FCA103D02D0EF56F02D02B0EF56F60
:103A0600E8C9E1FFE9C9E2FFF5C9E6FFE84BE92BA2
:103A16000A01094B0A2B0ED00901FCA10BD0E8C9FB
:103A2600E1FFE9C9E2FF200EE66EE84BE92B0A0149
:103A3600094B0A2BC00E0901FC15016EFD51080B3E
:103A4600026E0250080A02E1400E01180CE1E8C9B4
:103A5600E1FFE9C9E2FF300EE66EE84BE92B0A0109
:103A6600094B0A2B2BD0C00E0901FC15016EFD5126
:103A7600080B026E0250080A02E1800E01181EE1D0
:103A8600E8C9E1FFE9C9E2FF300EE66EE84BE92B33
:103A96000A01094B0A2B0901FCAB03D0580EF66F3D
:103AA60002D0780EF66FE8C9E1FFE9C9E2FFF6C970
:103AB600E6FFE84BE92B0A01094B0A2B800E006E44
:103AC600800E0901F819005C02E1F751F95D0CE27C
:103AD600E8C9E1FFE9C9E2FF300EE66EE84BE92BE3
:103AE6000A01094B0A2BEAD7F7C900F0F8C901F019
:103AF600010E0901F75F000EF85B00500110D8B403
:103B060030D1C00EFC15006E00C00BFA0DD10901B4
:103B1600F7C900F0F8C901F0000EF8BFFF0E026EFB
:103B2600036E0036009001360236033600360090EA
:103B3600013602360336C50E0024F66E580E0120F5
:103B4600F76E000E0220F86E0900F5CF04F00900AA
:103B5600F5CF05F00900F5CF06F00900F5CF07F01F
:103B660005CA00F006CA01F007CA02F008CA03F047
:103B7600B8EC05F00A0E046E000E056E066E076EB2
:103B8600B8EC05F008C000F009C001F00AC002F068
:103B96000BC003F0300E0024F96FD6D00901FCAB40
:103BA60045D0F7C900F0F8C901F0000EF8BFFF0EC6
:103BB600026E036E0036009001360236033600367A
:103BC6000090013602360336ED0E0024F66E580ECE
:103BD6000120F76E000E0220F86E0900F5CF04F002
:103BE6000900F5CF05F00900F5CF06F00900F5CF7D
:103BF60007F005CA00F006CA01F007CA02F008CAB3
:103C060003F0B8EC05F00F0E0016000E01160216B2
:103C16000316330E0024F66E590E0120F76E000EC1
:103C26000220F86E0900F5CFF9F944D0F7C900F083
:103C3600F8C901F0000EF8BFFF0E026E036E0036E3
:103C46000090013602360336003600900136023601
:103C56000336ED0E0024F66E580E0120F76E000EA8
:103C66000220F86E0900F5CF04F00900F5CF05F043
:103C76000900F5CF06F00900F5CF07F005CA00F0F8
:103C860006CA01F007CA02F008CA03F0B8EC05F04C
:103C96000F0E0016000E011602160316220E002441
:103CA600F66E590E0120F76E000E0220F86E09001E
:103CB600F5CFF9F949D00901F7C900F0F8C901F0C3
:103CC600000EF8BFFF0E026E036E0036009001363E
:103CD6000236033600360090013602360336950E5C
:103CE6000024F66E580E0120F76E000E0220F86EC4
:103CF6000900F5CF04F00900F5CF05F00900F5CF6E
:103D060006F00900F5CF07F005CA00F006CA01F073
:103D160007CA02F008CA03F0B8EC05F0070E001453
:103D2600F96F300EF92710D00A010B51000AD8B4EA
:103D3600EED60B51C00AD8B4EAD60B51800AD8B4D5
:103D46002DD70B51400AB7E0E8C9E1FFE9C9E2FF08
:103D5600F9C9E6FF0901E84BE92B0A01094B0A2BD1
:103D6600C3D60901FCA71CD0800E006E800EFB197D
:103D7600005C02E1FA51000813E2E8C9E1FFE9C973
:103D8600E2FF200EE66EE84BE92B0A01094B0A2BEF
:103D9600010E0901FA5F000EFB5BFA51FB11EDE122
:0E3DA60021EF0EF009CA00F00ACA01F0120067
:103DB400EBC900F0016A026A036AFF0E0016000EE6
:103DC400011600C0F0F901C0F1F97F0E005C026E2B
:103DD400000E0158036E02C0F0F903C0F1F9800E21
:103DE4000318006E800E005C02E1000E025C22E209
:103DF400046A056A066A076AE8C900F0E9C901F0BD
:103E0400EAC902F0EBC903F0FFEC04F0010ED8B0EC
:103E1400000E006E005209E0000E006E000E016EEE
:103E2400800E026E7F0E036E5CD0006A016A026A25
:103E3400036A57D00901F151000802E1F051180852
:103E440009E2E8C900F0E9C901F0EAC902F0EBC9E6
:103E540003F047D0E8C900F0E9C901F0EAC902F06B
:103E6400EBC903F0D9EC0BF072EC0CF000C0ECF9E8
:103E740001C0EDF902C0EEF903C0EFF900C004F08F
:103E840001C005F002C006F003C007F0E8C900F065
:103E9400E9C901F0EAC902F0EBC903F0FFEC04F050
:103EA400010ED8B0000E006E005213E0000E046E36
:103EB400000E056E000E066E7F0E076EECC900F054
:103EC400EDC901F0EEC902F0EFC903F02EEC07F0E2
:103ED40008D0ECC900F0EDC901F0EEC902F0EFC959
:043EE40003F01200D5
:103EE800046A056A066A076AE8C900F0E9C901F0C8
:103EF800EAC902F0EBC903F0FFEC04F0010ED8B0F8
:103F0800000E006E00520EE0000E0901E819006E66
:103F1800000EE919016E800EEA19026E000EEB1907
:103F2800036E08D0E8C900F0E9C901F0EAC902F057
:063F3800EBC903F01200CA
:103F3E00E8C904F0E9C905F00901EC51ED1124E0DE
:103F4E00010EEC5F000EED5B04C002F005C003F045
:103F5E00044A052AEAC900F0EBC901F0EA4BEB2B43
:103F6E0000C0E9FF01C0EAFF02C0E1FF03C0E2FFAB
:103F7E00EECFE6FF02C0E9FF03C0EAFFEECF00F08E
:103F8E00005201E101D0D8D7ECC900F0EDC901F023
:103F9E00010EEC5F000EED5B0050011008E004C056
:103FAE00E1FF05C0E2FFE66A044A052AEDD7E8C93B
:083FBE0000F0E9C901F0120056
:103FC600E8C9E9FFE9C9EAFFEECFEAF9000E0901FF
:103FD600EB6F000EEB6F000EEB1902E1200EEA19F3
:103FE60007E0000EEB1902E1090EEA1901E003D021
:103FF600E84BE92BE5D7EC6BED6BEE6BEF6B000E48
:10400600EB1902E12D0EEA1905E1EE4BEF2BE84B19
:10401600E92B08D0000EEB1902E12B0EEA1902E19A
:10402600E84BE92BE8C9E9FFE9C9EAFFEECFEAF96F
:10403600000EEB6F000EEB6FEAC900FA32EC07F0E8
:1040460000521AE0ECC900F0EDC901F00A0E046E48
:10405600000E056E90EC05F0300E0901EA5D026E69
:10406600000EEB59036E02500024EC6F0350012042
:10407600ED6FE84BE92BD6D70901EE51EF1108E0B9
:10408600EC510008006EEDC901F0000E015604D097
:0A409600ECC900F0EDC901F01200C2
:1040A0000900F5CFE6FF0006FBE10106F9E1120089
:1040B000BB50010F006E016A000E0122E8C904F036
:1040C000000E056E90EC05F0060E026E00C004F0C6
:1040D00001C005F0025005E005320432059EFF0FD5
:1040E000FAD7040E016E04C000F0015004E000365F
:1040F0000090FF0FFBD7300E0014036E04C000F0D9
:1041000005C001F001320032019E01320032019EF1
:0E41100000C067FF0F0E661603506612120005
:10411E00BB50010F006E016A000E0122E8C904F0C7
:10412E00000E056E90EC05F0060E026E00C004F057
:10413E0001C005F0025005E005320432059EFF0F66
:10414E00FAD7040E016E04C000F0015004E00036F0
:10415E000090FF0FFBD7300E0014036E04C000F06A
:10416E0005C001F001320032019E01320032019E83
:0E417E0000C0BEFF0F0EBD160350BD12120092
:0C418C0072B201D0FDD7E8C973FF120029
:104198000B6A0350D8B412EF21F002500A6E028E57
:1041A8008E0E035E03AE16EF21F0036C080E035C5F
:1041B800D8A0F1EF20F0036E013602C001F0026AC8
:1041C800080E035CD8A0F1EF20F0036E0136016AF7
:1041D8000350D8A4D890FBEF20F00350D8B4FBEFDD
:1041E80020F0D89002320132032EF5EF20F00BBCFC
:1041F80001A008EF21F0D8A008EF21F0012AD8B4D7
:10420800022A02BE25EF21F00AAE2BEF21F0021E92
:10421800011E012AD8B4022A2BEF21F0026A016A92
:104228002BEF21F00B800BAE2FEF21F0026A0AAEC4
:104238002FEF21F0FF0E026E016E0A3602322FEFC9
:1042480021F0010E0C6EC0EC01F031EF21F0000EF0
:104258000C6E31EF21F0FF0E0C6E0150006E025013
:04426800016E1200D1
:10426C00220E0C6E086A096A0A6A0B6A0C06D8B42C
:10427C001FD0D8900B320A32093208320332023284
:10428C0001320032D8A0F2D70C06D8B409D00450B1
:10429C0008260550092206500A2207500B22EAD79D
:1042AC00045008260550092206500A2207500B22FA
:0242BC001200EE
:1042BE00C26A0801371D006E0050C1160F0EC012E3
:1042CE00C08EE8C900F00036009000360090005015
:1042DE00C212C28094EC0CF0C282C2A201D0FDD7F1
:1042EE00C4CF01F0006A00C0E9F901C0EAF9C35079
:1042FE000012000E011200C0E9F901C0EAF9C290E5
:10430E00000E0014026E0150800B036E000E031897
:10431E0002E1000E021803E00901E96BEA6BE9C93C
:08432E0000F0EAC901F01200E1
:10433600CD0E0901E16F090EE26FC8C9E8F9C9C9D6
:10434600E9F9CAC9EAF9CBC9EBF9CCC9ECF9E10E2E
:10435600ED6F090EEE6F1BEC0EF000C0DFF901C029
:10436600E0F90050C825E16E0150C921E26EE66A07
:0A437600DFC900F0E0C901F01200F9
:0A438000000E9EBA010E006E12003E
:10438A008C0E0901676F410E686FE80E696F090E9E
:10439A006A6F440E736F440E746F000E756F000ED1
:1043AA00766F3A0E6F6F440E706F000E716F000ECB
:1043BA00726FFF0E6B6FFF0E6C6F000E6D6F000E4B
:1043CA006E6F728A900E716E958E959CA4AA03D018
:0843DA0074CF00F0FBD71200C4
:1043E200FF0E0901676FFF0E686FFF0E696FFF0E08
:1043F2006A6F560E736F440E746F000E756F000E67
:10440200766F800E6F6F430E706F000E716F000E2D
:10441200726FFF0E6B6FFF0E6C6F000E6D6F000EF2
:104422006E6FAC8A900EAB6E948E949C9EAA03D053
:08443200AECF00F0FBD7120031
:0A443A00000EA4BA010E006E12007D
:1044440074CF01F071A202D07198718801C000F09C
:02445400120054
:10445600AECF01F0ABA202D0AB98AB8801C000F0A2
:02446600120042
:1044680015CA04F016CA05F004C002F005C003F02E
:10447800044A052A17CA00F018CA01F00A01174BA6
:10448800182B00C0E9FF01C0EAFF02C0E1FF03C02A
:10449800E2FFEECFE6FF02C0E9FF03C0EAFFEE52FB
:0E44A80001E0E2D715CA00F016CA01F01200BA
:1044B6000901CB6BC8C9E9FFC9C9EAFFEECFCAF942
:1044C600CA51000A0EE0CAC9E8F95DDE0901CB2B24
:1044D600CB51C825E96E000EC921EA6EEECFCAF9A6
:0444E600EFD71200FA
:1044EA000901E86BE7DE00C0C8F901C0C9F9000E8E
:1044FA000901CA6FCB6FC8C900F0C9C901F0CAC99E
:10450A0002F0CBC903F0880E046E130E056E000E7E
:10451A00066E076EA6DE0A0E046E00C054F801C0CD
:10452A0055F802C056F803C057F8045008E00801CD
:10453A005733563355335433579FFF0FF7D7010E6E
:10454A000901E86FB7DE00C0CCF901C0CDF9000E51
:10455A000901CE6FCF6FCCC900F0CDC901F0CEC929
:10456A0002F0CFC903F0880E046E130E056E000E1A
:10457A00066E076E76DE0A0E046E00C040F801C0B1
:10458A0041F802C042F803C043F8045008E00801A9
:10459A004333423341334033439FFF0FF7D7020E71
:1045AA000901E86F87DE00C0D0F901C0D1F9000E19
:1045BA000901D26FD36FD0C900F0D1C901F0D2C9B5
:1045CA0002F0D3C903F0880E046E130E056E000EB6
:1045DA00066E076E46DE0A0E046E00C04CF801C075
:1045EA004DF802C04EF803C04FF8045008E0080125
:1045FA004F334E334D334C334F9FFF0FF7D7030ED4
:10460A000901E86F57DE00C0D4F901C0D5F9000EE0
:10461A000901D66FD76FD4C900F0D5C901F0D6C940
:10462A0002F0D7C903F0880E046E130E056E000E51
:10463A00066E076E16DE0A0E046E00C05CF801C034
:10464A005DF802C05EF803C05FF8045008E0080194
:10465A005F335E335D335C335F9FFF0FF7D7120022
:0A466A009492BA840C0E661212003E
:10467400000E0901C86F000EC96F000ECA6F820ECA
:10468400CB6FCD0ECC6FCC0ECD6F4C0ECE6F7B0EA0
:10469400CF6F000ED06F000ED16F700ED26F820EEE
:1046A400D36FD46BD56BD66BD76BD80EE86F090E6E
:1046B400E96F7F0EEA6F090EEB6F030EEC6F000ECD
:1046C400ED6F3BDCDC6BD80EE86F090EE96F79DC2B
:1046D40000C03AF8000E00BEFF0E08013B6F000E4A
:1046E4003B1902E1000E3A1901E10ED177C904F039
:1046F40078C905F079C906F07AC907F03CC800F01A
:104704003DC801F03EC802F03FC803F02EEC07F0AC
:1047140000C0E4F901C0E5F902C0E6F903C0E7F915
:10472400E4C9E0F9E5C9E1F9E6C9E2F9E7C9E3F961
:1047340022C804F023C805F024C806F025C807F0F1
:10474400E4C900F0E5C901F0E6C902F0E7C903F0E5
:104754002EEC07F000C0D4F901C0D5F902C0D6F997
:1047640003C0D7F9E4C9E8F9E5C9E9F9E6C9EAF902
:10477400E7C9EBF974EC1FF0000E046E000E056E31
:10478400200E066E830E076EFFEC04F0010ED8B007
:10479400000E006E00521AE026C800F027C801F08F
:1047A40028C802F029C803F0E0C904F0E1C905F003
:1047B400E2C906F0E3C907F0E1EC01F000C026F815
:1047C40001C027F802C028F803C029F8C8C900F0BE
:1047D400C9C901F0CAC902F0CBC903F0E0C904F0A9
:1047E400E1C905F0E2C906F0E3C907F06CEC04F096
:1047F40000C0E4F901C0E5F902C0E6F903C0E7F935
:10480400CCC900F0CDC901F0CEC902F0CFC903F084
:1048140026C804F027C805F028C806F029C807F000
:104824006CEC04F0E4C904F0E5C905F0E6C906F04F
:10483400E7C907F0E1EC01F000C0E4F901C0E5F9D3
:1048440002C0E6F903C0E7F9D0C900F0D1C901F00C
:10485400D2C902F0D3C903F0D4C904F0D5C905F014
:10486400D6C906F0D7C907F06CEC04F0E4C904F02B
:10487400E5C905F0E6C906F0E7C907F0E1EC01F087
:10488400000E046E000E056E000E066E7E0E076EA0
:10489400E1EC01F000C0E8F901C0E9F902C0EAF96D
:1048A40003C0EBF9DAEC1EF075DC580E0024026E3E
:1048B400000E0120036E02C038F803C039F8800EE0
:1048C4000318006E800E005C02E1000E025C03E23D
:1048D4000801386B396B0801800E006E800E39199F
:1048E400005C02E13851FF0804E2FF0E386F000E4D
:1048F400396F38C8E8F911DCE0C922F8E1C923F8B6
:0A490400E2C924F8E3C925F8120007
:10490E00040E0901CC25E96E000ECD21EA6EEECF24
:10491E0001F0EECF02F0EECF03F0EECF04F0000E7A
:10492E00006E041808E10050031805E1005002184B
:10493E0002E10150000A0CE1040ECC25E16E000EDE
:10494E00CD21E26E020EE66E000EE66EE66EE66EAD
:10495E00CCC9E9FFCDC9EAFFCCC9E1FFCDC9E2FF61
:10496E00C851E626C951E622CA51E622CB51E622AB
:10497E00040ECC25E96E000ECD21EA6EEECF03F0CB
:10498E00EECF04F0EECF05F0EECF06F003C000F050
:10499E0004C001F00036009001360036009001365A
:1049AE000050CC25D96E0150CD21DA6ECCC9E9FF6D
:1049BE00CDC9EAFFEECF00F0EECF01F0EECF02F060
:1049CE00EECF03F0DE50005EDE50015ADE50025A8A
:1049DE00DE50035ACCC9E1FFCDC9E2FF00C0E6FFAD
:1049EE0001C0E6FF02C0E6FF03C0E6FF040ECC25C1
:1049FE00E96E000ECD21EA6EEECF03F0EECF04F09D
:104A0E00EECF05F0EECF06F003C000F004C001F0CB
:104A1E000036009001360036009001360050CC254D
:104A2E00E16E0150CD21E26EC8C9E6FFC9C9E6FFAD
:104A3E00CAC9E6FFCBC9E6FF040ECC25046E000EF4
:104A4E00CD21056E04C0E9FF05C0EAFF010EEE247C
:104A5E00006E000EEE20016E000EEE20026E000EB5
:104A6E00EE20036E04C0E1FF05C0E2FF00C0E6FFCA
:104A7E0001C0E6FF02C0E6FF03C0E6FF040ECC2530
:104A8E00E96E000ECD21EA6EEECF01F0EECF02F010
:104A9E00EECF03F0EECF04F00450000808E103500F
:104AAE00000805E10250000802E101507F080CE207
:104ABE00040ECC25E16E000ECD21E26E020EE66EE6
:104ACE00000EE66EE66EE66ECCC9E9FFCDC9EAFFD2
:104ADE00EECF00F0EECF01F0EECF02F0EECF03F00E
:104AEE007E0E046E000E056E066E076EB8EC05F0B7
:024AFE001200A4
:084B0000676A6698669A1200CC
:084B0800BE6ABD98BD9A1200BF
:0A4B10009494BA840C0EBD1212003A
:104B1A00440EF66E590EF76E000EF86EC80EE16E70
:104B2A00090EE26E100E006E010E016E50EC20F0BE
:104B3A00C0C904F0C1C905F0C2C906F0C3C907F06B
:104B4A007BC900F07CC901F07DC902F07EC903F07F
:104B5A002EEC07F000C0D8F901C0D9F902C0DAF981
:104B6A0003C0DBF9C0C904F0C1C905F0C2C906F027
:104B7A00C3C907F0CCC900F0CDC901F0CEC902F013
:104B8A00CFC903F0FFEC04F0010ED8B0000E006E9E
:104B9A00005212E0000E08012B1902E1010E2A1937
:104BAA000BE10401216B08012A6B2B6B8296090128
:104BBA00E86B58EC20F097D0C8C904F0C9C905F0D1
:104BCA00CAC906F0CBC907F0C0C900F0C1C901F0D3
:104BDA00C2C902F0C3C903F0FFEC04F0010ED8B059
:104BEA00000E006E00520FE0C80E0401216F010E84
:104BFA0008012A6F000E2B6F8286C80E0901E86F22
:104C0A0058EC20F070D0CCC904F0CDC905F0CEC95B
:104C1A0006F0CFC907F0C0C900F0C1C901F0C2C986
:104C2A0002F0C3C903F0FFEC04F0010ED8B0000E85
:104C3A00006E00522EE0D8C904F0D9C905F0DAC9CD
:104C4A0006F0DBC907F0D4C900F0D5C901F0D6C90E
:104C5A0002F0D7C903F0FFEC04F0010ED8B0000E41
:104C6A00006E005216E0000E08012B1902E1000E38
:104C7A002A190FE1C80E0401216F010E08012A6FDB
:104C8A00000E2B6F8286C80E0901E86F58EC20F0DF
:104C9A002AD0D0C904F0D1C905F0D2C906F0D3C9C7
:104CAA0007F0D8C900F0D9C901F0DAC902F0DBC9A6
:104CBA0003F0FFEC04F0010ED8B0000E006E0052B3
:104CCA0012E0000E08012B1902E1010E2A190BE16C
:104CDA000401216B08012A6B2B6B82960901E86B90
:084CEA0058EC20F000D012008C
:104CF200B2EC2CF00F0E0F01386FFF0E926E396B73
:104D0200800E936E3A6B946A3B6B800E956EB886FA
:104D1200B06ACF0EAF6EAC84F1EC21F0020E0B6ED6
:104D2200040E0C6EBA0E0D6E0D2EFED70C2EFCD795
:104D32000B2EFAD700007086766ACF0E756E7284DB
:104D4200C5EC21F0020E0B6E040E0C6EBA0E0D6E47
:104D52000D2EFED70C2EFCD70B2EFAD70000BA90E0
:104D6200BA92840EBB6ECFDE799E0801386B396B26
:104D7200CEDE38C8E8F98FEC20F0BA90BA92840EF1
:104D8200BB6EBDDE799E0401216B6EDC21C4E8F9A5
:104D920058EC20F09D8AA38AF28CF28E75EC22F0F8
:104DA20054C8C8F955C8C9F956C8CAF957C8CBF981
:104DB200220E0901CC6F040ECD6FA8DD00C058F899
:104DC20001C059F802C05AF803C05BF87DEC05F047
:104DD2009F0E046ECD0E056E4A0E066E7D0E076E98
:104DE2006CEC04F0660E046E660E056E4E0E066ED8
:104DF200860E076E2EEC07F000C077F901C078F935
:104E020002C079F903C07AF95CC8C8F95DC8C9F96A
:104E12005EC8CAF95FC8CBF9220ECC6F060ECD6F01
:104E220075DD00C060F801C061F802C062F803C01D
:104E320063F87DEC05F0830E046EC00E056E4A0E1B
:104E4200066E7D0E076E6CEC04F0CD0E046ECC0E79
:104E5200056E4A0E066E860E076E2EEC07F000C037
:104E620050F801C051F802C052F803C053F840C8CC
:104E7200C8F941C8C9F942C8CAF943C8CBF91F0EDB
:104E8200CC6F000ECD6F42DD00C044F801C045F882
:104E920002C046F803C047F84CC8C8F94DC8C9F962
:104EA2004EC8CAF94FC8CBF9210ECC6F020ECD6F96
:104EB2002DDD00C0C4F901C0C5F902C0C6F903C0A6
:104EC200C7F9C4C948F8C5C949F8C6C94AF8C7C923
:104ED2004BF844C800F045C801F046C802F047C884
:104EE20003F07DEC05F08F0E046EC20E056E050E0A
:104EF200066E800E076E6CEC04F0CD0E046EEC0EA6
:104F0200056E230E066E8B0E076E2EEC07F000C0A8
:104F12007BF901C07CF902C07DF903C07EF9C4C9E6
:104F220000F0C5C901F0C6C902F0C7C903F07DECA3
:104F320005F08F0E046EC20E056E050E066E800E13
:104F4200076E6CEC04F0330E046EEF0E056E230E4A
:104F5200066E8B0E076E2EEC07F000C0C0F901C082
:104F6200C1F902C0C2F903C0C3F93AEC23F0D4DD9F
:104F720002011F4B202B000E201902E1320E1F19D5
:104F820039E11F6B206B270E0901C86F090EC96F2B
:104F92000D0ECA6F590ECB6F000ECC6F77C9CDF9CB
:104FA20078C9CEF979C9CFF97AC9D0F97BC9D1F9D3
:104FB2007CC9D2F97DC9D3F97EC9D4F9C0C9D5F962
:104FC200C1C9D6F9C2C9D7F9C3C9D8F93CC8D9F9F8
:104FD2003DC8DAF93EC8DBF93FC8DCF921C4DDF986
:104FE200000EDE6F9BEC21F0270EC86F090EC96F11
:104FF2005BEC22F01A0E0C6EF80E0D6E0D2EFED723
:0A5002000C2EFCD70000CAD6FFD721
:1059640010EE1FF0210E006E090E016E0C0EF66E85
:0E597400500EF76E000EF86E50EC20F0120090
:10500C000000000000000000000000000000000094
:10501C000000000000000000000000000000000084
:10502C000000000000000000000000000000000074
:10503C000000000000000000000000000000000064
:10504C000000000000000000000000000000000054
:10505C000000000000000000000000000000000044
:10506C000000000000000000000000000000000034
:10507C000000000000000000000000000000000024
:10508C000000000000000000000000000000000014
:10509C000000000000000000000000000000000004
:1050AC0000000000000000000000000000000000F4
:1050BC0000000000000000000000000000000000E4
:1050CC0000000000000000000000000000000000D4
:1050DC0000000000000000000000000000000000C4
:1050EC0000000000000000000000000000000000B4
:1050FC0000000000000000000000000000000000A4
:10510C000000000000000000000000000000000093
:10511C000000000000000000000000000000000083
:10512C000000000000000000000000000000000073
:10513C000000000000000000000000000000000063
:10514C000000000000000000000000000000000053
:10515C000000000000000000000000000000000043
:10516C000000000000000000000000000000000033
:10517C000000000000000000000000000000000023
:10518C000000000000000000000000000000000013
:10519C000000000000000000000000000000000003
:1051AC0000000000000000000000000000000000F3
:1051BC0000000000000000000000000000000000E3
:1051CC0000000000000000000000000000000000D3
:1051DC0000000000000000000000000000000000C3
:1051EC0000000000000000000000000000000000B3
:1051FC0000000000000000000000000000000000A3
:02520C000000A0
:10520E000000000000000000000000000000000090
:10521E000000000000000000000000000000000080
:10522E000000000000000000000000000000000070
:10523E000000000000000000000000000000000060
:10524E000000000000000000000000000000000050
:10525E000000000000000000000000000000000040
:10526E000000000000000000000000000000000030
:10527E000000000000000000000000000000000020
:10528E000000000000000000000000000000000010
:10529E000000000000000000000000000000000000
:1052AE0000000000000000000000000000000000F0
:1052BE0000000000000000000000000000000000E0
:1052CE0000000000000000000000000000000000D0
:1052DE0000000000000000000000000000000000C0
:1052EE0000000000000000000000000000000000B0
:1052FE0000000000000000000000000000000000A0
:10530E00000000000000000000000000000000008F
:10531E00000000000000000000000000000000007F
:10532E00000000000000000000000000000000006F
:10533E00000000000000000000000000000000005F
:10534E00000000000000000000000000000000004F
:10535E00000000000000000000000000000000003F
:10536E00000000000000000000000000000000002F
:10537E00000000000000000000000000000000001F
:10538E00000000000000000000000000000000000F
:10539E0000000000000000000000000000000000FF
:1053AE0000000000000000000000000000000000EF
:1053BE0000000000000000000000000000000000DF
:1053CE0000000000000000000000000000000000CF
:1053DE0000000000000000000000000000000000BF
:1053EE0000000000000000000000000000000000AF
:1053FE00000000000000000000000000000000009F
:01540E00009D
:10540F00000000000000000000000000000000008D
:10541F00000000000000000000000000000000007D
:10542F00000000000000000000000000000000006D
:10543F00000000000000000000000000000000005D
:04580F000000000095
:045813000000000091
:0258170000008F
:0258190000008D
:02581B0000008B
:07581D00286E756C6C290078
:015824000F74
:02582500000081
:0258270000007F
:04582900000000007B
:10582D000000007F000020820000488500007A887B
:10583D0000401C8C0050438F002474928096189663
:10584D0020BC3E99286B6E9CF90215A0EC782DC1F9
:04585D00CAF249E260
:105861000000007FCDCC4C7B0AD723786F120375E3
:1058710017B75171ACC5276EBD37066B95BF56671B
:1058810077CC2B645F700961FFE65B5D08E53C3C0A
:045891006042221B34
:1058950001000000080000004000000000020000B8
:1058A500001000000080000000000400000020003F
:1058B500000000010000000800000040000000009A
:1058C500010000000A00000064000000E803000079
:1058D50010270000A086010040420F008096980026
:0858E50000E1F50500CA9A3B41
:1058ED000100000010000000000100000010000089
:1058FD000000010000001000000000010000001079
:10590D0025662C2025662C2025662C2025662C202E
:05591D0025640D0A00E5
:105922003031323334353637383961626364656613
:015932000074
:1059330030313233343536373839414243444546C2
:015943000063
:0459440000002083BC
:0459480000007A865B
:04594C0000002083B4
:045950000000708360
:0459540000000082CD
:04595800CDCC4C7BEB
:04595C000000708255
:045960000000000043
:020000040030CA
:0D000100231F3CFFBF01FF0FC00FE00F40A9
:00000001FF
